{
	"contracts/Vending_machine.sol": {
		"VendingMachine": {
			"abi": [
				{
					"inputs": [],
					"stateMutability": "nonpayable",
					"type": "constructor"
				},
				{
					"inputs": [
						{
							"internalType": "address",
							"name": "",
							"type": "address"
						}
					],
					"name": "donutBalances",
					"outputs": [
						{
							"internalType": "uint256",
							"name": "",
							"type": "uint256"
						}
					],
					"stateMutability": "view",
					"type": "function"
				},
				{
					"inputs": [],
					"name": "getVendingMachineBalance",
					"outputs": [
						{
							"internalType": "uint256",
							"name": "",
							"type": "uint256"
						}
					],
					"stateMutability": "view",
					"type": "function"
				},
				{
					"inputs": [],
					"name": "owner",
					"outputs": [
						{
							"internalType": "address",
							"name": "",
							"type": "address"
						}
					],
					"stateMutability": "view",
					"type": "function"
				},
				{
					"inputs": [
						{
							"internalType": "uint256",
							"name": "amount",
							"type": "uint256"
						}
					],
					"name": "purchase",
					"outputs": [],
					"stateMutability": "payable",
					"type": "function"
				},
				{
					"inputs": [
						{
							"internalType": "uint256",
							"name": "amount",
							"type": "uint256"
						}
					],
					"name": "restock",
					"outputs": [],
					"stateMutability": "nonpayable",
					"type": "function"
				}
			],
			"devdoc": {
				"kind": "dev",
				"methods": {},
				"version": 1
			},
			"evm": {
				"assembly": "    /* \"contracts/Vending_machine.sol\":58:1141  contract VendingMachine {... */\n  mstore(0x40, 0x80)\n    /* \"contracts/Vending_machine.sol\":307:400  constructor() {... */\n  callvalue\n  dup1\n  iszero\n  tag_1\n  jumpi\n  0x00\n  dup1\n  revert\ntag_1:\n  pop\n    /* \"contracts/Vending_machine.sol\":339:349  msg.sender */\n  caller\n    /* \"contracts/Vending_machine.sol\":331:336  owner */\n  0x00\n  dup1\n    /* \"contracts/Vending_machine.sol\":331:349  owner = msg.sender */\n  0x0100\n  exp\n  dup2\n  sload\n  dup2\n  0xffffffffffffffffffffffffffffffffffffffff\n  mul\n  not\n  and\n  swap1\n  dup4\n  0xffffffffffffffffffffffffffffffffffffffff\n  and\n  mul\n  or\n  swap1\n  sstore\n  pop\n    /* \"contracts/Vending_machine.sol\":390:393  100 */\n  0x64\n    /* \"contracts/Vending_machine.sol\":359:372  donutBalances */\n  0x01\n    /* \"contracts/Vending_machine.sol\":359:387  donutBalances[address(this)] */\n  0x00\n    /* \"contracts/Vending_machine.sol\":381:385  this */\n  address\n    /* \"contracts/Vending_machine.sol\":359:387  donutBalances[address(this)] */\n  0xffffffffffffffffffffffffffffffffffffffff\n  and\n  0xffffffffffffffffffffffffffffffffffffffff\n  and\n  dup2\n  mstore\n  0x20\n  add\n  swap1\n  dup2\n  mstore\n  0x20\n  add\n  0x00\n  keccak256\n    /* \"contracts/Vending_machine.sol\":359:393  donutBalances[address(this)] = 100 */\n  dup2\n  swap1\n  sstore\n  pop\n    /* \"contracts/Vending_machine.sol\":58:1141  contract VendingMachine {... */\n  dataSize(sub_0)\n  dup1\n  dataOffset(sub_0)\n  0x00\n  codecopy\n  0x00\n  return\nstop\n\nsub_0: assembly {\n        /* \"contracts/Vending_machine.sol\":58:1141  contract VendingMachine {... */\n      mstore(0x40, 0x80)\n      jumpi(tag_1, lt(calldatasize, 0x04))\n      shr(0xe0, calldataload(0x00))\n      dup1\n      0x8da5cb5b\n      eq\n      tag_2\n      jumpi\n      dup1\n      0x9a020d8a\n      eq\n      tag_3\n      jumpi\n      dup1\n      0xc21a702a\n      eq\n      tag_4\n      jumpi\n      dup1\n      0xe7644d34\n      eq\n      tag_5\n      jumpi\n      dup1\n      0xefef39a1\n      eq\n      tag_6\n      jumpi\n    tag_1:\n      0x00\n      dup1\n      revert\n        /* \"contracts/Vending_machine.sol\":112:132  address public owner */\n    tag_2:\n      callvalue\n      dup1\n      iszero\n      tag_7\n      jumpi\n      0x00\n      dup1\n      revert\n    tag_7:\n      pop\n      tag_8\n      tag_9\n      jump\t// in\n    tag_8:\n      mload(0x40)\n      tag_10\n      swap2\n      swap1\n      tag_11\n      jump\t// in\n    tag_10:\n      mload(0x40)\n      dup1\n      swap2\n      sub\n      swap1\n      return\n        /* \"contracts/Vending_machine.sol\":138:184  mapping (address => uint) public donutBalances */\n    tag_3:\n      callvalue\n      dup1\n      iszero\n      tag_12\n      jumpi\n      0x00\n      dup1\n      revert\n    tag_12:\n      pop\n      tag_13\n      0x04\n      dup1\n      calldatasize\n      sub\n      dup2\n      add\n      swap1\n      tag_14\n      swap2\n      swap1\n      tag_15\n      jump\t// in\n    tag_14:\n      tag_16\n      jump\t// in\n    tag_13:\n      mload(0x40)\n      tag_17\n      swap2\n      swap1\n      tag_18\n      jump\t// in\n    tag_17:\n      mload(0x40)\n      dup1\n      swap2\n      sub\n      swap1\n      return\n        /* \"contracts/Vending_machine.sol\":576:737  function restock(uint amount) public {... */\n    tag_4:\n      callvalue\n      dup1\n      iszero\n      tag_19\n      jumpi\n      0x00\n      dup1\n      revert\n    tag_19:\n      pop\n      tag_20\n      0x04\n      dup1\n      calldatasize\n      sub\n      dup2\n      add\n      swap1\n      tag_21\n      swap2\n      swap1\n      tag_22\n      jump\t// in\n    tag_21:\n      tag_23\n      jump\t// in\n    tag_20:\n      stop\n        /* \"contracts/Vending_machine.sol\":406:521  function getVendingMachineBalance() public view returns (uint) {... */\n    tag_5:\n      callvalue\n      dup1\n      iszero\n      tag_24\n      jumpi\n      0x00\n      dup1\n      revert\n    tag_24:\n      pop\n      tag_25\n      tag_26\n      jump\t// in\n    tag_25:\n      mload(0x40)\n      tag_27\n      swap2\n      swap1\n      tag_18\n      jump\t// in\n    tag_27:\n      mload(0x40)\n      dup1\n      swap2\n      sub\n      swap1\n      return\n        /* \"contracts/Vending_machine.sol\":791:1139  function purchase(uint amount) public payable {... */\n    tag_6:\n      tag_28\n      0x04\n      dup1\n      calldatasize\n      sub\n      dup2\n      add\n      swap1\n      tag_29\n      swap2\n      swap1\n      tag_22\n      jump\t// in\n    tag_29:\n      tag_30\n      jump\t// in\n    tag_28:\n      stop\n        /* \"contracts/Vending_machine.sol\":112:132  address public owner */\n    tag_9:\n      0x00\n      dup1\n      sload\n      swap1\n      0x0100\n      exp\n      swap1\n      div\n      0xffffffffffffffffffffffffffffffffffffffff\n      and\n      dup2\n      jump\t// out\n        /* \"contracts/Vending_machine.sol\":138:184  mapping (address => uint) public donutBalances */\n    tag_16:\n      mstore(0x20, 0x01)\n      dup1\n      0x00\n      mstore\n      keccak256(0x00, 0x40)\n      0x00\n      swap2\n      pop\n      swap1\n      pop\n      sload\n      dup2\n      jump\t// out\n        /* \"contracts/Vending_machine.sol\":576:737  function restock(uint amount) public {... */\n    tag_23:\n        /* \"contracts/Vending_machine.sol\":645:650  owner */\n      0x00\n      dup1\n      sload\n      swap1\n      0x0100\n      exp\n      swap1\n      div\n      0xffffffffffffffffffffffffffffffffffffffff\n      and\n        /* \"contracts/Vending_machine.sol\":631:650  msg.sender == owner */\n      0xffffffffffffffffffffffffffffffffffffffff\n      and\n        /* \"contracts/Vending_machine.sol\":631:641  msg.sender */\n      caller\n        /* \"contracts/Vending_machine.sol\":631:650  msg.sender == owner */\n      0xffffffffffffffffffffffffffffffffffffffff\n      and\n      eq\n        /* \"contracts/Vending_machine.sol\":623:682  require(msg.sender == owner, \"Only the owner can restock.\") */\n      tag_32\n      jumpi\n      mload(0x40)\n      0x08c379a000000000000000000000000000000000000000000000000000000000\n      dup2\n      mstore\n      0x04\n      add\n      tag_33\n      swap1\n      tag_34\n      jump\t// in\n    tag_33:\n      mload(0x40)\n      dup1\n      swap2\n      sub\n      swap1\n      revert\n    tag_32:\n        /* \"contracts/Vending_machine.sol\":724:730  amount */\n      dup1\n        /* \"contracts/Vending_machine.sol\":692:705  donutBalances */\n      0x01\n        /* \"contracts/Vending_machine.sol\":692:720  donutBalances[address(this)] */\n      0x00\n        /* \"contracts/Vending_machine.sol\":714:718  this */\n      address\n        /* \"contracts/Vending_machine.sol\":692:720  donutBalances[address(this)] */\n      0xffffffffffffffffffffffffffffffffffffffff\n      and\n      0xffffffffffffffffffffffffffffffffffffffff\n      and\n      dup2\n      mstore\n      0x20\n      add\n      swap1\n      dup2\n      mstore\n      0x20\n      add\n      0x00\n      keccak256\n      0x00\n        /* \"contracts/Vending_machine.sol\":692:730  donutBalances[address(this)] += amount */\n      dup3\n      dup3\n      sload\n      tag_35\n      swap2\n      swap1\n      tag_36\n      jump\t// in\n    tag_35:\n      swap3\n      pop\n      pop\n      dup2\n      swap1\n      sstore\n      pop\n        /* \"contracts/Vending_machine.sol\":576:737  function restock(uint amount) public {... */\n      pop\n      jump\t// out\n        /* \"contracts/Vending_machine.sol\":406:521  function getVendingMachineBalance() public view returns (uint) {... */\n    tag_26:\n        /* \"contracts/Vending_machine.sol\":463:467  uint */\n      0x00\n        /* \"contracts/Vending_machine.sol\":486:499  donutBalances */\n      0x01\n        /* \"contracts/Vending_machine.sol\":486:514  donutBalances[address(this)] */\n      0x00\n        /* \"contracts/Vending_machine.sol\":508:512  this */\n      address\n        /* \"contracts/Vending_machine.sol\":486:514  donutBalances[address(this)] */\n      0xffffffffffffffffffffffffffffffffffffffff\n      and\n      0xffffffffffffffffffffffffffffffffffffffff\n      and\n      dup2\n      mstore\n      0x20\n      add\n      swap1\n      dup2\n      mstore\n      0x20\n      add\n      0x00\n      keccak256\n      sload\n        /* \"contracts/Vending_machine.sol\":479:514  return donutBalances[address(this)] */\n      swap1\n      pop\n        /* \"contracts/Vending_machine.sol\":406:521  function getVendingMachineBalance() public view returns (uint) {... */\n      swap1\n      jump\t// out\n        /* \"contracts/Vending_machine.sol\":791:1139  function purchase(uint amount) public payable {... */\n    tag_30:\n        /* \"contracts/Vending_machine.sol\":877:884  2 ether */\n      0x1bc16d674ec80000\n        /* \"contracts/Vending_machine.sol\":868:874  amount */\n      dup2\n        /* \"contracts/Vending_machine.sol\":868:884  amount * 2 ether */\n      tag_39\n      swap2\n      swap1\n      tag_40\n      jump\t// in\n    tag_39:\n        /* \"contracts/Vending_machine.sol\":855:864  msg.value */\n      callvalue\n        /* \"contracts/Vending_machine.sol\":855:884  msg.value >= amount * 2 ether */\n      lt\n      iszero\n        /* \"contracts/Vending_machine.sol\":847:926  require(msg.value >= amount * 2 ether, \"You must pay at least 2 ETH per donut\") */\n      tag_41\n      jumpi\n      mload(0x40)\n      0x08c379a000000000000000000000000000000000000000000000000000000000\n      dup2\n      mstore\n      0x04\n      add\n      tag_42\n      swap1\n      tag_43\n      jump\t// in\n    tag_42:\n      mload(0x40)\n      dup1\n      swap2\n      sub\n      swap1\n      revert\n    tag_41:\n        /* \"contracts/Vending_machine.sol\":976:982  amount */\n      dup1\n        /* \"contracts/Vending_machine.sol\":944:957  donutBalances */\n      0x01\n        /* \"contracts/Vending_machine.sol\":944:972  donutBalances[address(this)] */\n      0x00\n        /* \"contracts/Vending_machine.sol\":966:970  this */\n      address\n        /* \"contracts/Vending_machine.sol\":944:972  donutBalances[address(this)] */\n      0xffffffffffffffffffffffffffffffffffffffff\n      and\n      0xffffffffffffffffffffffffffffffffffffffff\n      and\n      dup2\n      mstore\n      0x20\n      add\n      swap1\n      dup2\n      mstore\n      0x20\n      add\n      0x00\n      keccak256\n      sload\n        /* \"contracts/Vending_machine.sol\":944:982  donutBalances[address(this)] >= amount */\n      lt\n      iszero\n        /* \"contracts/Vending_machine.sol\":936:1039  require(donutBalances[address(this)] >= amount, \"Not enough donuts in stock to complete this purchase\") */\n      tag_44\n      jumpi\n      mload(0x40)\n      0x08c379a000000000000000000000000000000000000000000000000000000000\n      dup2\n      mstore\n      0x04\n      add\n      tag_45\n      swap1\n      tag_46\n      jump\t// in\n    tag_45:\n      mload(0x40)\n      dup1\n      swap2\n      sub\n      swap1\n      revert\n    tag_44:\n        /* \"contracts/Vending_machine.sol\":1081:1087  amount */\n      dup1\n        /* \"contracts/Vending_machine.sol\":1049:1062  donutBalances */\n      0x01\n        /* \"contracts/Vending_machine.sol\":1049:1077  donutBalances[address(this)] */\n      0x00\n        /* \"contracts/Vending_machine.sol\":1071:1075  this */\n      address\n        /* \"contracts/Vending_machine.sol\":1049:1077  donutBalances[address(this)] */\n      0xffffffffffffffffffffffffffffffffffffffff\n      and\n      0xffffffffffffffffffffffffffffffffffffffff\n      and\n      dup2\n      mstore\n      0x20\n      add\n      swap1\n      dup2\n      mstore\n      0x20\n      add\n      0x00\n      keccak256\n      0x00\n        /* \"contracts/Vending_machine.sol\":1049:1087  donutBalances[address(this)] -= amount */\n      dup3\n      dup3\n      sload\n      tag_47\n      swap2\n      swap1\n      tag_48\n      jump\t// in\n    tag_47:\n      swap3\n      pop\n      pop\n      dup2\n      swap1\n      sstore\n      pop\n        /* \"contracts/Vending_machine.sol\":1126:1132  amount */\n      dup1\n        /* \"contracts/Vending_machine.sol\":1097:1110  donutBalances */\n      0x01\n        /* \"contracts/Vending_machine.sol\":1097:1122  donutBalances[msg.sender] */\n      0x00\n        /* \"contracts/Vending_machine.sol\":1111:1121  msg.sender */\n      caller\n        /* \"contracts/Vending_machine.sol\":1097:1122  donutBalances[msg.sender] */\n      0xffffffffffffffffffffffffffffffffffffffff\n      and\n      0xffffffffffffffffffffffffffffffffffffffff\n      and\n      dup2\n      mstore\n      0x20\n      add\n      swap1\n      dup2\n      mstore\n      0x20\n      add\n      0x00\n      keccak256\n      0x00\n        /* \"contracts/Vending_machine.sol\":1097:1132  donutBalances[msg.sender] += amount */\n      dup3\n      dup3\n      sload\n      tag_49\n      swap2\n      swap1\n      tag_36\n      jump\t// in\n    tag_49:\n      swap3\n      pop\n      pop\n      dup2\n      swap1\n      sstore\n      pop\n        /* \"contracts/Vending_machine.sol\":791:1139  function purchase(uint amount) public payable {... */\n      pop\n      jump\t// out\n        /* \"#utility.yul\":7:133   */\n    tag_50:\n        /* \"#utility.yul\":44:51   */\n      0x00\n        /* \"#utility.yul\":84:126   */\n      0xffffffffffffffffffffffffffffffffffffffff\n        /* \"#utility.yul\":77:82   */\n      dup3\n        /* \"#utility.yul\":73:127   */\n      and\n        /* \"#utility.yul\":62:127   */\n      swap1\n      pop\n        /* \"#utility.yul\":7:133   */\n      swap2\n      swap1\n      pop\n      jump\t// out\n        /* \"#utility.yul\":139:235   */\n    tag_51:\n        /* \"#utility.yul\":176:183   */\n      0x00\n        /* \"#utility.yul\":205:229   */\n      tag_73\n        /* \"#utility.yul\":223:228   */\n      dup3\n        /* \"#utility.yul\":205:229   */\n      tag_50\n      jump\t// in\n    tag_73:\n        /* \"#utility.yul\":194:229   */\n      swap1\n      pop\n        /* \"#utility.yul\":139:235   */\n      swap2\n      swap1\n      pop\n      jump\t// out\n        /* \"#utility.yul\":241:359   */\n    tag_52:\n        /* \"#utility.yul\":328:352   */\n      tag_75\n        /* \"#utility.yul\":346:351   */\n      dup2\n        /* \"#utility.yul\":328:352   */\n      tag_51\n      jump\t// in\n    tag_75:\n        /* \"#utility.yul\":323:326   */\n      dup3\n        /* \"#utility.yul\":316:353   */\n      mstore\n        /* \"#utility.yul\":241:359   */\n      pop\n      pop\n      jump\t// out\n        /* \"#utility.yul\":365:587   */\n    tag_11:\n        /* \"#utility.yul\":458:462   */\n      0x00\n        /* \"#utility.yul\":496:498   */\n      0x20\n        /* \"#utility.yul\":485:494   */\n      dup3\n        /* \"#utility.yul\":481:499   */\n      add\n        /* \"#utility.yul\":473:499   */\n      swap1\n      pop\n        /* \"#utility.yul\":509:580   */\n      tag_77\n        /* \"#utility.yul\":577:578   */\n      0x00\n        /* \"#utility.yul\":566:575   */\n      dup4\n        /* \"#utility.yul\":562:579   */\n      add\n        /* \"#utility.yul\":553:559   */\n      dup5\n        /* \"#utility.yul\":509:580   */\n      tag_52\n      jump\t// in\n    tag_77:\n        /* \"#utility.yul\":365:587   */\n      swap3\n      swap2\n      pop\n      pop\n      jump\t// out\n        /* \"#utility.yul\":674:791   */\n    tag_54:\n        /* \"#utility.yul\":783:784   */\n      0x00\n        /* \"#utility.yul\":780:781   */\n      dup1\n        /* \"#utility.yul\":773:785   */\n      revert\n        /* \"#utility.yul\":920:1042   */\n    tag_56:\n        /* \"#utility.yul\":993:1017   */\n      tag_82\n        /* \"#utility.yul\":1011:1016   */\n      dup2\n        /* \"#utility.yul\":993:1017   */\n      tag_51\n      jump\t// in\n    tag_82:\n        /* \"#utility.yul\":986:991   */\n      dup2\n        /* \"#utility.yul\":983:1018   */\n      eq\n        /* \"#utility.yul\":973:1036   */\n      tag_83\n      jumpi\n        /* \"#utility.yul\":1032:1033   */\n      0x00\n        /* \"#utility.yul\":1029:1030   */\n      dup1\n        /* \"#utility.yul\":1022:1034   */\n      revert\n        /* \"#utility.yul\":973:1036   */\n    tag_83:\n        /* \"#utility.yul\":920:1042   */\n      pop\n      jump\t// out\n        /* \"#utility.yul\":1048:1187   */\n    tag_57:\n        /* \"#utility.yul\":1094:1099   */\n      0x00\n        /* \"#utility.yul\":1132:1138   */\n      dup2\n        /* \"#utility.yul\":1119:1139   */\n      calldataload\n        /* \"#utility.yul\":1110:1139   */\n      swap1\n      pop\n        /* \"#utility.yul\":1148:1181   */\n      tag_85\n        /* \"#utility.yul\":1175:1180   */\n      dup2\n        /* \"#utility.yul\":1148:1181   */\n      tag_56\n      jump\t// in\n    tag_85:\n        /* \"#utility.yul\":1048:1187   */\n      swap3\n      swap2\n      pop\n      pop\n      jump\t// out\n        /* \"#utility.yul\":1193:1522   */\n    tag_15:\n        /* \"#utility.yul\":1252:1258   */\n      0x00\n        /* \"#utility.yul\":1301:1303   */\n      0x20\n        /* \"#utility.yul\":1289:1298   */\n      dup3\n        /* \"#utility.yul\":1280:1287   */\n      dup5\n        /* \"#utility.yul\":1276:1299   */\n      sub\n        /* \"#utility.yul\":1272:1304   */\n      slt\n        /* \"#utility.yul\":1269:1388   */\n      iszero\n      tag_87\n      jumpi\n        /* \"#utility.yul\":1307:1386   */\n      tag_88\n      tag_54\n      jump\t// in\n    tag_88:\n        /* \"#utility.yul\":1269:1388   */\n    tag_87:\n        /* \"#utility.yul\":1427:1428   */\n      0x00\n        /* \"#utility.yul\":1452:1505   */\n      tag_89\n        /* \"#utility.yul\":1497:1504   */\n      dup5\n        /* \"#utility.yul\":1488:1494   */\n      dup3\n        /* \"#utility.yul\":1477:1486   */\n      dup6\n        /* \"#utility.yul\":1473:1495   */\n      add\n        /* \"#utility.yul\":1452:1505   */\n      tag_57\n      jump\t// in\n    tag_89:\n        /* \"#utility.yul\":1442:1505   */\n      swap2\n      pop\n        /* \"#utility.yul\":1398:1515   */\n      pop\n        /* \"#utility.yul\":1193:1522   */\n      swap3\n      swap2\n      pop\n      pop\n      jump\t// out\n        /* \"#utility.yul\":1528:1605   */\n    tag_58:\n        /* \"#utility.yul\":1565:1572   */\n      0x00\n        /* \"#utility.yul\":1594:1599   */\n      dup2\n        /* \"#utility.yul\":1583:1599   */\n      swap1\n      pop\n        /* \"#utility.yul\":1528:1605   */\n      swap2\n      swap1\n      pop\n      jump\t// out\n        /* \"#utility.yul\":1611:1729   */\n    tag_59:\n        /* \"#utility.yul\":1698:1722   */\n      tag_92\n        /* \"#utility.yul\":1716:1721   */\n      dup2\n        /* \"#utility.yul\":1698:1722   */\n      tag_58\n      jump\t// in\n    tag_92:\n        /* \"#utility.yul\":1693:1696   */\n      dup3\n        /* \"#utility.yul\":1686:1723   */\n      mstore\n        /* \"#utility.yul\":1611:1729   */\n      pop\n      pop\n      jump\t// out\n        /* \"#utility.yul\":1735:1957   */\n    tag_18:\n        /* \"#utility.yul\":1828:1832   */\n      0x00\n        /* \"#utility.yul\":1866:1868   */\n      0x20\n        /* \"#utility.yul\":1855:1864   */\n      dup3\n        /* \"#utility.yul\":1851:1869   */\n      add\n        /* \"#utility.yul\":1843:1869   */\n      swap1\n      pop\n        /* \"#utility.yul\":1879:1950   */\n      tag_94\n        /* \"#utility.yul\":1947:1948   */\n      0x00\n        /* \"#utility.yul\":1936:1945   */\n      dup4\n        /* \"#utility.yul\":1932:1949   */\n      add\n        /* \"#utility.yul\":1923:1929   */\n      dup5\n        /* \"#utility.yul\":1879:1950   */\n      tag_59\n      jump\t// in\n    tag_94:\n        /* \"#utility.yul\":1735:1957   */\n      swap3\n      swap2\n      pop\n      pop\n      jump\t// out\n        /* \"#utility.yul\":1963:2085   */\n    tag_60:\n        /* \"#utility.yul\":2036:2060   */\n      tag_96\n        /* \"#utility.yul\":2054:2059   */\n      dup2\n        /* \"#utility.yul\":2036:2060   */\n      tag_58\n      jump\t// in\n    tag_96:\n        /* \"#utility.yul\":2029:2034   */\n      dup2\n        /* \"#utility.yul\":2026:2061   */\n      eq\n        /* \"#utility.yul\":2016:2079   */\n      tag_97\n      jumpi\n        /* \"#utility.yul\":2075:2076   */\n      0x00\n        /* \"#utility.yul\":2072:2073   */\n      dup1\n        /* \"#utility.yul\":2065:2077   */\n      revert\n        /* \"#utility.yul\":2016:2079   */\n    tag_97:\n        /* \"#utility.yul\":1963:2085   */\n      pop\n      jump\t// out\n        /* \"#utility.yul\":2091:2230   */\n    tag_61:\n        /* \"#utility.yul\":2137:2142   */\n      0x00\n        /* \"#utility.yul\":2175:2181   */\n      dup2\n        /* \"#utility.yul\":2162:2182   */\n      calldataload\n        /* \"#utility.yul\":2153:2182   */\n      swap1\n      pop\n        /* \"#utility.yul\":2191:2224   */\n      tag_99\n        /* \"#utility.yul\":2218:2223   */\n      dup2\n        /* \"#utility.yul\":2191:2224   */\n      tag_60\n      jump\t// in\n    tag_99:\n        /* \"#utility.yul\":2091:2230   */\n      swap3\n      swap2\n      pop\n      pop\n      jump\t// out\n        /* \"#utility.yul\":2236:2565   */\n    tag_22:\n        /* \"#utility.yul\":2295:2301   */\n      0x00\n        /* \"#utility.yul\":2344:2346   */\n      0x20\n        /* \"#utility.yul\":2332:2341   */\n      dup3\n        /* \"#utility.yul\":2323:2330   */\n      dup5\n        /* \"#utility.yul\":2319:2342   */\n      sub\n        /* \"#utility.yul\":2315:2347   */\n      slt\n        /* \"#utility.yul\":2312:2431   */\n      iszero\n      tag_101\n      jumpi\n        /* \"#utility.yul\":2350:2429   */\n      tag_102\n      tag_54\n      jump\t// in\n    tag_102:\n        /* \"#utility.yul\":2312:2431   */\n    tag_101:\n        /* \"#utility.yul\":2470:2471   */\n      0x00\n        /* \"#utility.yul\":2495:2548   */\n      tag_103\n        /* \"#utility.yul\":2540:2547   */\n      dup5\n        /* \"#utility.yul\":2531:2537   */\n      dup3\n        /* \"#utility.yul\":2520:2529   */\n      dup6\n        /* \"#utility.yul\":2516:2538   */\n      add\n        /* \"#utility.yul\":2495:2548   */\n      tag_61\n      jump\t// in\n    tag_103:\n        /* \"#utility.yul\":2485:2548   */\n      swap2\n      pop\n        /* \"#utility.yul\":2441:2558   */\n      pop\n        /* \"#utility.yul\":2236:2565   */\n      swap3\n      swap2\n      pop\n      pop\n      jump\t// out\n        /* \"#utility.yul\":2571:2740   */\n    tag_62:\n        /* \"#utility.yul\":2655:2666   */\n      0x00\n        /* \"#utility.yul\":2689:2695   */\n      dup3\n        /* \"#utility.yul\":2684:2687   */\n      dup3\n        /* \"#utility.yul\":2677:2696   */\n      mstore\n        /* \"#utility.yul\":2729:2733   */\n      0x20\n        /* \"#utility.yul\":2724:2727   */\n      dup3\n        /* \"#utility.yul\":2720:2734   */\n      add\n        /* \"#utility.yul\":2705:2734   */\n      swap1\n      pop\n        /* \"#utility.yul\":2571:2740   */\n      swap3\n      swap2\n      pop\n      pop\n      jump\t// out\n        /* \"#utility.yul\":2746:2923   */\n    tag_63:\n        /* \"#utility.yul\":2886:2915   */\n      0x4f6e6c7920746865206f776e65722063616e20726573746f636b2e0000000000\n        /* \"#utility.yul\":2882:2883   */\n      0x00\n        /* \"#utility.yul\":2874:2880   */\n      dup3\n        /* \"#utility.yul\":2870:2884   */\n      add\n        /* \"#utility.yul\":2863:2916   */\n      mstore\n        /* \"#utility.yul\":2746:2923   */\n      pop\n      jump\t// out\n        /* \"#utility.yul\":2929:3295   */\n    tag_64:\n        /* \"#utility.yul\":3071:3074   */\n      0x00\n        /* \"#utility.yul\":3092:3159   */\n      tag_107\n        /* \"#utility.yul\":3156:3158   */\n      0x1b\n        /* \"#utility.yul\":3151:3154   */\n      dup4\n        /* \"#utility.yul\":3092:3159   */\n      tag_62\n      jump\t// in\n    tag_107:\n        /* \"#utility.yul\":3085:3159   */\n      swap2\n      pop\n        /* \"#utility.yul\":3168:3261   */\n      tag_108\n        /* \"#utility.yul\":3257:3260   */\n      dup3\n        /* \"#utility.yul\":3168:3261   */\n      tag_63\n      jump\t// in\n    tag_108:\n        /* \"#utility.yul\":3286:3288   */\n      0x20\n        /* \"#utility.yul\":3281:3284   */\n      dup3\n        /* \"#utility.yul\":3277:3289   */\n      add\n        /* \"#utility.yul\":3270:3289   */\n      swap1\n      pop\n        /* \"#utility.yul\":2929:3295   */\n      swap2\n      swap1\n      pop\n      jump\t// out\n        /* \"#utility.yul\":3301:3720   */\n    tag_34:\n        /* \"#utility.yul\":3467:3471   */\n      0x00\n        /* \"#utility.yul\":3505:3507   */\n      0x20\n        /* \"#utility.yul\":3494:3503   */\n      dup3\n        /* \"#utility.yul\":3490:3508   */\n      add\n        /* \"#utility.yul\":3482:3508   */\n      swap1\n      pop\n        /* \"#utility.yul\":3554:3563   */\n      dup2\n        /* \"#utility.yul\":3548:3552   */\n      dup2\n        /* \"#utility.yul\":3544:3564   */\n      sub\n        /* \"#utility.yul\":3540:3541   */\n      0x00\n        /* \"#utility.yul\":3529:3538   */\n      dup4\n        /* \"#utility.yul\":3525:3542   */\n      add\n        /* \"#utility.yul\":3518:3565   */\n      mstore\n        /* \"#utility.yul\":3582:3713   */\n      tag_110\n        /* \"#utility.yul\":3708:3712   */\n      dup2\n        /* \"#utility.yul\":3582:3713   */\n      tag_64\n      jump\t// in\n    tag_110:\n        /* \"#utility.yul\":3574:3713   */\n      swap1\n      pop\n        /* \"#utility.yul\":3301:3720   */\n      swap2\n      swap1\n      pop\n      jump\t// out\n        /* \"#utility.yul\":3726:3906   */\n    tag_65:\n        /* \"#utility.yul\":3774:3851   */\n      0x4e487b7100000000000000000000000000000000000000000000000000000000\n        /* \"#utility.yul\":3771:3772   */\n      0x00\n        /* \"#utility.yul\":3764:3852   */\n      mstore\n        /* \"#utility.yul\":3871:3875   */\n      0x11\n        /* \"#utility.yul\":3868:3869   */\n      0x04\n        /* \"#utility.yul\":3861:3876   */\n      mstore\n        /* \"#utility.yul\":3895:3899   */\n      0x24\n        /* \"#utility.yul\":3892:3893   */\n      0x00\n        /* \"#utility.yul\":3885:3900   */\n      revert\n        /* \"#utility.yul\":3912:4217   */\n    tag_36:\n        /* \"#utility.yul\":3952:3955   */\n      0x00\n        /* \"#utility.yul\":3971:3991   */\n      tag_113\n        /* \"#utility.yul\":3989:3990   */\n      dup3\n        /* \"#utility.yul\":3971:3991   */\n      tag_58\n      jump\t// in\n    tag_113:\n        /* \"#utility.yul\":3966:3991   */\n      swap2\n      pop\n        /* \"#utility.yul\":4005:4025   */\n      tag_114\n        /* \"#utility.yul\":4023:4024   */\n      dup4\n        /* \"#utility.yul\":4005:4025   */\n      tag_58\n      jump\t// in\n    tag_114:\n        /* \"#utility.yul\":4000:4025   */\n      swap3\n      pop\n        /* \"#utility.yul\":4159:4160   */\n      dup3\n        /* \"#utility.yul\":4091:4157   */\n      0xffffffffffffffffffffffffffffffffffffffffffffffffffffffffffffffff\n        /* \"#utility.yul\":4087:4161   */\n      sub\n        /* \"#utility.yul\":4084:4085   */\n      dup3\n        /* \"#utility.yul\":4081:4162   */\n      gt\n        /* \"#utility.yul\":4078:4185   */\n      iszero\n      tag_115\n      jumpi\n        /* \"#utility.yul\":4165:4183   */\n      tag_116\n      tag_65\n      jump\t// in\n    tag_116:\n        /* \"#utility.yul\":4078:4185   */\n    tag_115:\n        /* \"#utility.yul\":4209:4210   */\n      dup3\n        /* \"#utility.yul\":4206:4207   */\n      dup3\n        /* \"#utility.yul\":4202:4211   */\n      add\n        /* \"#utility.yul\":4195:4211   */\n      swap1\n      pop\n        /* \"#utility.yul\":3912:4217   */\n      swap3\n      swap2\n      pop\n      pop\n      jump\t// out\n        /* \"#utility.yul\":4223:4571   */\n    tag_40:\n        /* \"#utility.yul\":4263:4270   */\n      0x00\n        /* \"#utility.yul\":4286:4306   */\n      tag_118\n        /* \"#utility.yul\":4304:4305   */\n      dup3\n        /* \"#utility.yul\":4286:4306   */\n      tag_58\n      jump\t// in\n    tag_118:\n        /* \"#utility.yul\":4281:4306   */\n      swap2\n      pop\n        /* \"#utility.yul\":4320:4340   */\n      tag_119\n        /* \"#utility.yul\":4338:4339   */\n      dup4\n        /* \"#utility.yul\":4320:4340   */\n      tag_58\n      jump\t// in\n    tag_119:\n        /* \"#utility.yul\":4315:4340   */\n      swap3\n      pop\n        /* \"#utility.yul\":4508:4509   */\n      dup2\n        /* \"#utility.yul\":4440:4506   */\n      0xffffffffffffffffffffffffffffffffffffffffffffffffffffffffffffffff\n        /* \"#utility.yul\":4436:4510   */\n      div\n        /* \"#utility.yul\":4433:4434   */\n      dup4\n        /* \"#utility.yul\":4430:4511   */\n      gt\n        /* \"#utility.yul\":4425:4426   */\n      dup3\n        /* \"#utility.yul\":4418:4427   */\n      iszero\n        /* \"#utility.yul\":4411:4428   */\n      iszero\n        /* \"#utility.yul\":4407:4512   */\n      and\n        /* \"#utility.yul\":4404:4535   */\n      iszero\n      tag_120\n      jumpi\n        /* \"#utility.yul\":4515:4533   */\n      tag_121\n      tag_65\n      jump\t// in\n    tag_121:\n        /* \"#utility.yul\":4404:4535   */\n    tag_120:\n        /* \"#utility.yul\":4563:4564   */\n      dup3\n        /* \"#utility.yul\":4560:4561   */\n      dup3\n        /* \"#utility.yul\":4556:4565   */\n      mul\n        /* \"#utility.yul\":4545:4565   */\n      swap1\n      pop\n        /* \"#utility.yul\":4223:4571   */\n      swap3\n      swap2\n      pop\n      pop\n      jump\t// out\n        /* \"#utility.yul\":4577:4801   */\n    tag_66:\n        /* \"#utility.yul\":4717:4751   */\n      0x596f75206d75737420706179206174206c656173742032204554482070657220\n        /* \"#utility.yul\":4713:4714   */\n      0x00\n        /* \"#utility.yul\":4705:4711   */\n      dup3\n        /* \"#utility.yul\":4701:4715   */\n      add\n        /* \"#utility.yul\":4694:4752   */\n      mstore\n        /* \"#utility.yul\":4786:4793   */\n      0x646f6e7574000000000000000000000000000000000000000000000000000000\n        /* \"#utility.yul\":4781:4783   */\n      0x20\n        /* \"#utility.yul\":4773:4779   */\n      dup3\n        /* \"#utility.yul\":4769:4784   */\n      add\n        /* \"#utility.yul\":4762:4794   */\n      mstore\n        /* \"#utility.yul\":4577:4801   */\n      pop\n      jump\t// out\n        /* \"#utility.yul\":4807:5173   */\n    tag_67:\n        /* \"#utility.yul\":4949:4952   */\n      0x00\n        /* \"#utility.yul\":4970:5037   */\n      tag_124\n        /* \"#utility.yul\":5034:5036   */\n      0x25\n        /* \"#utility.yul\":5029:5032   */\n      dup4\n        /* \"#utility.yul\":4970:5037   */\n      tag_62\n      jump\t// in\n    tag_124:\n        /* \"#utility.yul\":4963:5037   */\n      swap2\n      pop\n        /* \"#utility.yul\":5046:5139   */\n      tag_125\n        /* \"#utility.yul\":5135:5138   */\n      dup3\n        /* \"#utility.yul\":5046:5139   */\n      tag_66\n      jump\t// in\n    tag_125:\n        /* \"#utility.yul\":5164:5166   */\n      0x40\n        /* \"#utility.yul\":5159:5162   */\n      dup3\n        /* \"#utility.yul\":5155:5167   */\n      add\n        /* \"#utility.yul\":5148:5167   */\n      swap1\n      pop\n        /* \"#utility.yul\":4807:5173   */\n      swap2\n      swap1\n      pop\n      jump\t// out\n        /* \"#utility.yul\":5179:5598   */\n    tag_43:\n        /* \"#utility.yul\":5345:5349   */\n      0x00\n        /* \"#utility.yul\":5383:5385   */\n      0x20\n        /* \"#utility.yul\":5372:5381   */\n      dup3\n        /* \"#utility.yul\":5368:5386   */\n      add\n        /* \"#utility.yul\":5360:5386   */\n      swap1\n      pop\n        /* \"#utility.yul\":5432:5441   */\n      dup2\n        /* \"#utility.yul\":5426:5430   */\n      dup2\n        /* \"#utility.yul\":5422:5442   */\n      sub\n        /* \"#utility.yul\":5418:5419   */\n      0x00\n        /* \"#utility.yul\":5407:5416   */\n      dup4\n        /* \"#utility.yul\":5403:5420   */\n      add\n        /* \"#utility.yul\":5396:5443   */\n      mstore\n        /* \"#utility.yul\":5460:5591   */\n      tag_127\n        /* \"#utility.yul\":5586:5590   */\n      dup2\n        /* \"#utility.yul\":5460:5591   */\n      tag_67\n      jump\t// in\n    tag_127:\n        /* \"#utility.yul\":5452:5591   */\n      swap1\n      pop\n        /* \"#utility.yul\":5179:5598   */\n      swap2\n      swap1\n      pop\n      jump\t// out\n        /* \"#utility.yul\":5604:5843   */\n    tag_68:\n        /* \"#utility.yul\":5744:5778   */\n      0x4e6f7420656e6f75676820646f6e75747320696e2073746f636b20746f20636f\n        /* \"#utility.yul\":5740:5741   */\n      0x00\n        /* \"#utility.yul\":5732:5738   */\n      dup3\n        /* \"#utility.yul\":5728:5742   */\n      add\n        /* \"#utility.yul\":5721:5779   */\n      mstore\n        /* \"#utility.yul\":5813:5835   */\n      0x6d706c6574652074686973207075726368617365000000000000000000000000\n        /* \"#utility.yul\":5808:5810   */\n      0x20\n        /* \"#utility.yul\":5800:5806   */\n      dup3\n        /* \"#utility.yul\":5796:5811   */\n      add\n        /* \"#utility.yul\":5789:5836   */\n      mstore\n        /* \"#utility.yul\":5604:5843   */\n      pop\n      jump\t// out\n        /* \"#utility.yul\":5849:6215   */\n    tag_69:\n        /* \"#utility.yul\":5991:5994   */\n      0x00\n        /* \"#utility.yul\":6012:6079   */\n      tag_130\n        /* \"#utility.yul\":6076:6078   */\n      0x34\n        /* \"#utility.yul\":6071:6074   */\n      dup4\n        /* \"#utility.yul\":6012:6079   */\n      tag_62\n      jump\t// in\n    tag_130:\n        /* \"#utility.yul\":6005:6079   */\n      swap2\n      pop\n        /* \"#utility.yul\":6088:6181   */\n      tag_131\n        /* \"#utility.yul\":6177:6180   */\n      dup3\n        /* \"#utility.yul\":6088:6181   */\n      tag_68\n      jump\t// in\n    tag_131:\n        /* \"#utility.yul\":6206:6208   */\n      0x40\n        /* \"#utility.yul\":6201:6204   */\n      dup3\n        /* \"#utility.yul\":6197:6209   */\n      add\n        /* \"#utility.yul\":6190:6209   */\n      swap1\n      pop\n        /* \"#utility.yul\":5849:6215   */\n      swap2\n      swap1\n      pop\n      jump\t// out\n        /* \"#utility.yul\":6221:6640   */\n    tag_46:\n        /* \"#utility.yul\":6387:6391   */\n      0x00\n        /* \"#utility.yul\":6425:6427   */\n      0x20\n        /* \"#utility.yul\":6414:6423   */\n      dup3\n        /* \"#utility.yul\":6410:6428   */\n      add\n        /* \"#utility.yul\":6402:6428   */\n      swap1\n      pop\n        /* \"#utility.yul\":6474:6483   */\n      dup2\n        /* \"#utility.yul\":6468:6472   */\n      dup2\n        /* \"#utility.yul\":6464:6484   */\n      sub\n        /* \"#utility.yul\":6460:6461   */\n      0x00\n        /* \"#utility.yul\":6449:6458   */\n      dup4\n        /* \"#utility.yul\":6445:6462   */\n      add\n        /* \"#utility.yul\":6438:6485   */\n      mstore\n        /* \"#utility.yul\":6502:6633   */\n      tag_133\n        /* \"#utility.yul\":6628:6632   */\n      dup2\n        /* \"#utility.yul\":6502:6633   */\n      tag_69\n      jump\t// in\n    tag_133:\n        /* \"#utility.yul\":6494:6633   */\n      swap1\n      pop\n        /* \"#utility.yul\":6221:6640   */\n      swap2\n      swap1\n      pop\n      jump\t// out\n        /* \"#utility.yul\":6646:6837   */\n    tag_48:\n        /* \"#utility.yul\":6686:6690   */\n      0x00\n        /* \"#utility.yul\":6706:6726   */\n      tag_135\n        /* \"#utility.yul\":6724:6725   */\n      dup3\n        /* \"#utility.yul\":6706:6726   */\n      tag_58\n      jump\t// in\n    tag_135:\n        /* \"#utility.yul\":6701:6726   */\n      swap2\n      pop\n        /* \"#utility.yul\":6740:6760   */\n      tag_136\n        /* \"#utility.yul\":6758:6759   */\n      dup4\n        /* \"#utility.yul\":6740:6760   */\n      tag_58\n      jump\t// in\n    tag_136:\n        /* \"#utility.yul\":6735:6760   */\n      swap3\n      pop\n        /* \"#utility.yul\":6779:6780   */\n      dup3\n        /* \"#utility.yul\":6776:6777   */\n      dup3\n        /* \"#utility.yul\":6773:6781   */\n      lt\n        /* \"#utility.yul\":6770:6804   */\n      iszero\n      tag_137\n      jumpi\n        /* \"#utility.yul\":6784:6802   */\n      tag_138\n      tag_65\n      jump\t// in\n    tag_138:\n        /* \"#utility.yul\":6770:6804   */\n    tag_137:\n        /* \"#utility.yul\":6829:6830   */\n      dup3\n        /* \"#utility.yul\":6826:6827   */\n      dup3\n        /* \"#utility.yul\":6822:6831   */\n      sub\n        /* \"#utility.yul\":6814:6831   */\n      swap1\n      pop\n        /* \"#utility.yul\":6646:6837   */\n      swap3\n      swap2\n      pop\n      pop\n      jump\t// out\n\n    auxdata: 0xa2646970667358221220df091b39a422722e339ce91fbf15c7591d81dc90530ad1dffcf0cd144a490ba964736f6c634300080b0033\n}\n",
				"bytecode": {
					"linkReferences": {},
					"object": "608060405234801561001057600080fd5b50336000806101000a81548173ffffffffffffffffffffffffffffffffffffffff021916908373ffffffffffffffffffffffffffffffffffffffff1602179055506064600160003073ffffffffffffffffffffffffffffffffffffffff1673ffffffffffffffffffffffffffffffffffffffff16815260200190815260200160002081905550610849806100a56000396000f3fe60806040526004361061004a5760003560e01c80638da5cb5b1461004f5780639a020d8a1461007a578063c21a702a146100b7578063e7644d34146100e0578063efef39a11461010b575b600080fd5b34801561005b57600080fd5b50610064610127565b6040516100719190610459565b60405180910390f35b34801561008657600080fd5b506100a1600480360381019061009c91906104a5565b61014b565b6040516100ae91906104eb565b60405180910390f35b3480156100c357600080fd5b506100de60048036038101906100d99190610532565b610163565b005b3480156100ec57600080fd5b506100f561024a565b60405161010291906104eb565b60405180910390f35b61012560048036038101906101209190610532565b610291565b005b60008054906101000a900473ffffffffffffffffffffffffffffffffffffffff1681565b60016020528060005260406000206000915090505481565b60008054906101000a900473ffffffffffffffffffffffffffffffffffffffff1673ffffffffffffffffffffffffffffffffffffffff163373ffffffffffffffffffffffffffffffffffffffff16146101f1576040517f08c379a00000000000000000000000000000000000000000000000000000000081526004016101e8906105bc565b60405180910390fd5b80600160003073ffffffffffffffffffffffffffffffffffffffff1673ffffffffffffffffffffffffffffffffffffffff1681526020019081526020016000206000828254610240919061060b565b9250508190555050565b6000600160003073ffffffffffffffffffffffffffffffffffffffff1673ffffffffffffffffffffffffffffffffffffffff16815260200190815260200160002054905090565b671bc16d674ec80000816102a59190610661565b3410156102e7576040517f08c379a00000000000000000000000000000000000000000000000000000000081526004016102de9061072d565b60405180910390fd5b80600160003073ffffffffffffffffffffffffffffffffffffffff1673ffffffffffffffffffffffffffffffffffffffff168152602001908152602001600020541015610369576040517f08c379a0000000000000000000000000000000000000000000000000000000008152600401610360906107bf565b60405180910390fd5b80600160003073ffffffffffffffffffffffffffffffffffffffff1673ffffffffffffffffffffffffffffffffffffffff16815260200190815260200160002060008282546103b891906107df565b9250508190555080600160003373ffffffffffffffffffffffffffffffffffffffff1673ffffffffffffffffffffffffffffffffffffffff168152602001908152602001600020600082825461040e919061060b565b9250508190555050565b600073ffffffffffffffffffffffffffffffffffffffff82169050919050565b600061044382610418565b9050919050565b61045381610438565b82525050565b600060208201905061046e600083018461044a565b92915050565b600080fd5b61048281610438565b811461048d57600080fd5b50565b60008135905061049f81610479565b92915050565b6000602082840312156104bb576104ba610474565b5b60006104c984828501610490565b91505092915050565b6000819050919050565b6104e5816104d2565b82525050565b600060208201905061050060008301846104dc565b92915050565b61050f816104d2565b811461051a57600080fd5b50565b60008135905061052c81610506565b92915050565b60006020828403121561054857610547610474565b5b60006105568482850161051d565b91505092915050565b600082825260208201905092915050565b7f4f6e6c7920746865206f776e65722063616e20726573746f636b2e0000000000600082015250565b60006105a6601b8361055f565b91506105b182610570565b602082019050919050565b600060208201905081810360008301526105d581610599565b9050919050565b7f4e487b7100000000000000000000000000000000000000000000000000000000600052601160045260246000fd5b6000610616826104d2565b9150610621836104d2565b9250827fffffffffffffffffffffffffffffffffffffffffffffffffffffffffffffffff03821115610656576106556105dc565b5b828201905092915050565b600061066c826104d2565b9150610677836104d2565b9250817fffffffffffffffffffffffffffffffffffffffffffffffffffffffffffffffff04831182151516156106b0576106af6105dc565b5b828202905092915050565b7f596f75206d75737420706179206174206c65617374203220455448207065722060008201527f646f6e7574000000000000000000000000000000000000000000000000000000602082015250565b600061071760258361055f565b9150610722826106bb565b604082019050919050565b600060208201905081810360008301526107468161070a565b9050919050565b7f4e6f7420656e6f75676820646f6e75747320696e2073746f636b20746f20636f60008201527f6d706c6574652074686973207075726368617365000000000000000000000000602082015250565b60006107a960348361055f565b91506107b48261074d565b604082019050919050565b600060208201905081810360008301526107d88161079c565b9050919050565b60006107ea826104d2565b91506107f5836104d2565b925082821015610808576108076105dc565b5b82820390509291505056fea2646970667358221220df091b39a422722e339ce91fbf15c7591d81dc90530ad1dffcf0cd144a490ba964736f6c634300080b0033",
					"opcodes": "PUSH1 0x80 PUSH1 0x40 MSTORE CALLVALUE DUP1 ISZERO PUSH2 0x10 JUMPI PUSH1 0x0 DUP1 REVERT JUMPDEST POP CALLER PUSH1 0x0 DUP1 PUSH2 0x100 EXP DUP2 SLOAD DUP2 PUSH20 0xFFFFFFFFFFFFFFFFFFFFFFFFFFFFFFFFFFFFFFFF MUL NOT AND SWAP1 DUP4 PUSH20 0xFFFFFFFFFFFFFFFFFFFFFFFFFFFFFFFFFFFFFFFF AND MUL OR SWAP1 SSTORE POP PUSH1 0x64 PUSH1 0x1 PUSH1 0x0 ADDRESS PUSH20 0xFFFFFFFFFFFFFFFFFFFFFFFFFFFFFFFFFFFFFFFF AND PUSH20 0xFFFFFFFFFFFFFFFFFFFFFFFFFFFFFFFFFFFFFFFF AND DUP2 MSTORE PUSH1 0x20 ADD SWAP1 DUP2 MSTORE PUSH1 0x20 ADD PUSH1 0x0 KECCAK256 DUP2 SWAP1 SSTORE POP PUSH2 0x849 DUP1 PUSH2 0xA5 PUSH1 0x0 CODECOPY PUSH1 0x0 RETURN INVALID PUSH1 0x80 PUSH1 0x40 MSTORE PUSH1 0x4 CALLDATASIZE LT PUSH2 0x4A JUMPI PUSH1 0x0 CALLDATALOAD PUSH1 0xE0 SHR DUP1 PUSH4 0x8DA5CB5B EQ PUSH2 0x4F JUMPI DUP1 PUSH4 0x9A020D8A EQ PUSH2 0x7A JUMPI DUP1 PUSH4 0xC21A702A EQ PUSH2 0xB7 JUMPI DUP1 PUSH4 0xE7644D34 EQ PUSH2 0xE0 JUMPI DUP1 PUSH4 0xEFEF39A1 EQ PUSH2 0x10B JUMPI JUMPDEST PUSH1 0x0 DUP1 REVERT JUMPDEST CALLVALUE DUP1 ISZERO PUSH2 0x5B JUMPI PUSH1 0x0 DUP1 REVERT JUMPDEST POP PUSH2 0x64 PUSH2 0x127 JUMP JUMPDEST PUSH1 0x40 MLOAD PUSH2 0x71 SWAP2 SWAP1 PUSH2 0x459 JUMP JUMPDEST PUSH1 0x40 MLOAD DUP1 SWAP2 SUB SWAP1 RETURN JUMPDEST CALLVALUE DUP1 ISZERO PUSH2 0x86 JUMPI PUSH1 0x0 DUP1 REVERT JUMPDEST POP PUSH2 0xA1 PUSH1 0x4 DUP1 CALLDATASIZE SUB DUP2 ADD SWAP1 PUSH2 0x9C SWAP2 SWAP1 PUSH2 0x4A5 JUMP JUMPDEST PUSH2 0x14B JUMP JUMPDEST PUSH1 0x40 MLOAD PUSH2 0xAE SWAP2 SWAP1 PUSH2 0x4EB JUMP JUMPDEST PUSH1 0x40 MLOAD DUP1 SWAP2 SUB SWAP1 RETURN JUMPDEST CALLVALUE DUP1 ISZERO PUSH2 0xC3 JUMPI PUSH1 0x0 DUP1 REVERT JUMPDEST POP PUSH2 0xDE PUSH1 0x4 DUP1 CALLDATASIZE SUB DUP2 ADD SWAP1 PUSH2 0xD9 SWAP2 SWAP1 PUSH2 0x532 JUMP JUMPDEST PUSH2 0x163 JUMP JUMPDEST STOP JUMPDEST CALLVALUE DUP1 ISZERO PUSH2 0xEC JUMPI PUSH1 0x0 DUP1 REVERT JUMPDEST POP PUSH2 0xF5 PUSH2 0x24A JUMP JUMPDEST PUSH1 0x40 MLOAD PUSH2 0x102 SWAP2 SWAP1 PUSH2 0x4EB JUMP JUMPDEST PUSH1 0x40 MLOAD DUP1 SWAP2 SUB SWAP1 RETURN JUMPDEST PUSH2 0x125 PUSH1 0x4 DUP1 CALLDATASIZE SUB DUP2 ADD SWAP1 PUSH2 0x120 SWAP2 SWAP1 PUSH2 0x532 JUMP JUMPDEST PUSH2 0x291 JUMP JUMPDEST STOP JUMPDEST PUSH1 0x0 DUP1 SLOAD SWAP1 PUSH2 0x100 EXP SWAP1 DIV PUSH20 0xFFFFFFFFFFFFFFFFFFFFFFFFFFFFFFFFFFFFFFFF AND DUP2 JUMP JUMPDEST PUSH1 0x1 PUSH1 0x20 MSTORE DUP1 PUSH1 0x0 MSTORE PUSH1 0x40 PUSH1 0x0 KECCAK256 PUSH1 0x0 SWAP2 POP SWAP1 POP SLOAD DUP2 JUMP JUMPDEST PUSH1 0x0 DUP1 SLOAD SWAP1 PUSH2 0x100 EXP SWAP1 DIV PUSH20 0xFFFFFFFFFFFFFFFFFFFFFFFFFFFFFFFFFFFFFFFF AND PUSH20 0xFFFFFFFFFFFFFFFFFFFFFFFFFFFFFFFFFFFFFFFF AND CALLER PUSH20 0xFFFFFFFFFFFFFFFFFFFFFFFFFFFFFFFFFFFFFFFF AND EQ PUSH2 0x1F1 JUMPI PUSH1 0x40 MLOAD PUSH32 0x8C379A000000000000000000000000000000000000000000000000000000000 DUP2 MSTORE PUSH1 0x4 ADD PUSH2 0x1E8 SWAP1 PUSH2 0x5BC JUMP JUMPDEST PUSH1 0x40 MLOAD DUP1 SWAP2 SUB SWAP1 REVERT JUMPDEST DUP1 PUSH1 0x1 PUSH1 0x0 ADDRESS PUSH20 0xFFFFFFFFFFFFFFFFFFFFFFFFFFFFFFFFFFFFFFFF AND PUSH20 0xFFFFFFFFFFFFFFFFFFFFFFFFFFFFFFFFFFFFFFFF AND DUP2 MSTORE PUSH1 0x20 ADD SWAP1 DUP2 MSTORE PUSH1 0x20 ADD PUSH1 0x0 KECCAK256 PUSH1 0x0 DUP3 DUP3 SLOAD PUSH2 0x240 SWAP2 SWAP1 PUSH2 0x60B JUMP JUMPDEST SWAP3 POP POP DUP2 SWAP1 SSTORE POP POP JUMP JUMPDEST PUSH1 0x0 PUSH1 0x1 PUSH1 0x0 ADDRESS PUSH20 0xFFFFFFFFFFFFFFFFFFFFFFFFFFFFFFFFFFFFFFFF AND PUSH20 0xFFFFFFFFFFFFFFFFFFFFFFFFFFFFFFFFFFFFFFFF AND DUP2 MSTORE PUSH1 0x20 ADD SWAP1 DUP2 MSTORE PUSH1 0x20 ADD PUSH1 0x0 KECCAK256 SLOAD SWAP1 POP SWAP1 JUMP JUMPDEST PUSH8 0x1BC16D674EC80000 DUP2 PUSH2 0x2A5 SWAP2 SWAP1 PUSH2 0x661 JUMP JUMPDEST CALLVALUE LT ISZERO PUSH2 0x2E7 JUMPI PUSH1 0x40 MLOAD PUSH32 0x8C379A000000000000000000000000000000000000000000000000000000000 DUP2 MSTORE PUSH1 0x4 ADD PUSH2 0x2DE SWAP1 PUSH2 0x72D JUMP JUMPDEST PUSH1 0x40 MLOAD DUP1 SWAP2 SUB SWAP1 REVERT JUMPDEST DUP1 PUSH1 0x1 PUSH1 0x0 ADDRESS PUSH20 0xFFFFFFFFFFFFFFFFFFFFFFFFFFFFFFFFFFFFFFFF AND PUSH20 0xFFFFFFFFFFFFFFFFFFFFFFFFFFFFFFFFFFFFFFFF AND DUP2 MSTORE PUSH1 0x20 ADD SWAP1 DUP2 MSTORE PUSH1 0x20 ADD PUSH1 0x0 KECCAK256 SLOAD LT ISZERO PUSH2 0x369 JUMPI PUSH1 0x40 MLOAD PUSH32 0x8C379A000000000000000000000000000000000000000000000000000000000 DUP2 MSTORE PUSH1 0x4 ADD PUSH2 0x360 SWAP1 PUSH2 0x7BF JUMP JUMPDEST PUSH1 0x40 MLOAD DUP1 SWAP2 SUB SWAP1 REVERT JUMPDEST DUP1 PUSH1 0x1 PUSH1 0x0 ADDRESS PUSH20 0xFFFFFFFFFFFFFFFFFFFFFFFFFFFFFFFFFFFFFFFF AND PUSH20 0xFFFFFFFFFFFFFFFFFFFFFFFFFFFFFFFFFFFFFFFF AND DUP2 MSTORE PUSH1 0x20 ADD SWAP1 DUP2 MSTORE PUSH1 0x20 ADD PUSH1 0x0 KECCAK256 PUSH1 0x0 DUP3 DUP3 SLOAD PUSH2 0x3B8 SWAP2 SWAP1 PUSH2 0x7DF JUMP JUMPDEST SWAP3 POP POP DUP2 SWAP1 SSTORE POP DUP1 PUSH1 0x1 PUSH1 0x0 CALLER PUSH20 0xFFFFFFFFFFFFFFFFFFFFFFFFFFFFFFFFFFFFFFFF AND PUSH20 0xFFFFFFFFFFFFFFFFFFFFFFFFFFFFFFFFFFFFFFFF AND DUP2 MSTORE PUSH1 0x20 ADD SWAP1 DUP2 MSTORE PUSH1 0x20 ADD PUSH1 0x0 KECCAK256 PUSH1 0x0 DUP3 DUP3 SLOAD PUSH2 0x40E SWAP2 SWAP1 PUSH2 0x60B JUMP JUMPDEST SWAP3 POP POP DUP2 SWAP1 SSTORE POP POP JUMP JUMPDEST PUSH1 0x0 PUSH20 0xFFFFFFFFFFFFFFFFFFFFFFFFFFFFFFFFFFFFFFFF DUP3 AND SWAP1 POP SWAP2 SWAP1 POP JUMP JUMPDEST PUSH1 0x0 PUSH2 0x443 DUP3 PUSH2 0x418 JUMP JUMPDEST SWAP1 POP SWAP2 SWAP1 POP JUMP JUMPDEST PUSH2 0x453 DUP2 PUSH2 0x438 JUMP JUMPDEST DUP3 MSTORE POP POP JUMP JUMPDEST PUSH1 0x0 PUSH1 0x20 DUP3 ADD SWAP1 POP PUSH2 0x46E PUSH1 0x0 DUP4 ADD DUP5 PUSH2 0x44A JUMP JUMPDEST SWAP3 SWAP2 POP POP JUMP JUMPDEST PUSH1 0x0 DUP1 REVERT JUMPDEST PUSH2 0x482 DUP2 PUSH2 0x438 JUMP JUMPDEST DUP2 EQ PUSH2 0x48D JUMPI PUSH1 0x0 DUP1 REVERT JUMPDEST POP JUMP JUMPDEST PUSH1 0x0 DUP2 CALLDATALOAD SWAP1 POP PUSH2 0x49F DUP2 PUSH2 0x479 JUMP JUMPDEST SWAP3 SWAP2 POP POP JUMP JUMPDEST PUSH1 0x0 PUSH1 0x20 DUP3 DUP5 SUB SLT ISZERO PUSH2 0x4BB JUMPI PUSH2 0x4BA PUSH2 0x474 JUMP JUMPDEST JUMPDEST PUSH1 0x0 PUSH2 0x4C9 DUP5 DUP3 DUP6 ADD PUSH2 0x490 JUMP JUMPDEST SWAP2 POP POP SWAP3 SWAP2 POP POP JUMP JUMPDEST PUSH1 0x0 DUP2 SWAP1 POP SWAP2 SWAP1 POP JUMP JUMPDEST PUSH2 0x4E5 DUP2 PUSH2 0x4D2 JUMP JUMPDEST DUP3 MSTORE POP POP JUMP JUMPDEST PUSH1 0x0 PUSH1 0x20 DUP3 ADD SWAP1 POP PUSH2 0x500 PUSH1 0x0 DUP4 ADD DUP5 PUSH2 0x4DC JUMP JUMPDEST SWAP3 SWAP2 POP POP JUMP JUMPDEST PUSH2 0x50F DUP2 PUSH2 0x4D2 JUMP JUMPDEST DUP2 EQ PUSH2 0x51A JUMPI PUSH1 0x0 DUP1 REVERT JUMPDEST POP JUMP JUMPDEST PUSH1 0x0 DUP2 CALLDATALOAD SWAP1 POP PUSH2 0x52C DUP2 PUSH2 0x506 JUMP JUMPDEST SWAP3 SWAP2 POP POP JUMP JUMPDEST PUSH1 0x0 PUSH1 0x20 DUP3 DUP5 SUB SLT ISZERO PUSH2 0x548 JUMPI PUSH2 0x547 PUSH2 0x474 JUMP JUMPDEST JUMPDEST PUSH1 0x0 PUSH2 0x556 DUP5 DUP3 DUP6 ADD PUSH2 0x51D JUMP JUMPDEST SWAP2 POP POP SWAP3 SWAP2 POP POP JUMP JUMPDEST PUSH1 0x0 DUP3 DUP3 MSTORE PUSH1 0x20 DUP3 ADD SWAP1 POP SWAP3 SWAP2 POP POP JUMP JUMPDEST PUSH32 0x4F6E6C7920746865206F776E65722063616E20726573746F636B2E0000000000 PUSH1 0x0 DUP3 ADD MSTORE POP JUMP JUMPDEST PUSH1 0x0 PUSH2 0x5A6 PUSH1 0x1B DUP4 PUSH2 0x55F JUMP JUMPDEST SWAP2 POP PUSH2 0x5B1 DUP3 PUSH2 0x570 JUMP JUMPDEST PUSH1 0x20 DUP3 ADD SWAP1 POP SWAP2 SWAP1 POP JUMP JUMPDEST PUSH1 0x0 PUSH1 0x20 DUP3 ADD SWAP1 POP DUP2 DUP2 SUB PUSH1 0x0 DUP4 ADD MSTORE PUSH2 0x5D5 DUP2 PUSH2 0x599 JUMP JUMPDEST SWAP1 POP SWAP2 SWAP1 POP JUMP JUMPDEST PUSH32 0x4E487B7100000000000000000000000000000000000000000000000000000000 PUSH1 0x0 MSTORE PUSH1 0x11 PUSH1 0x4 MSTORE PUSH1 0x24 PUSH1 0x0 REVERT JUMPDEST PUSH1 0x0 PUSH2 0x616 DUP3 PUSH2 0x4D2 JUMP JUMPDEST SWAP2 POP PUSH2 0x621 DUP4 PUSH2 0x4D2 JUMP JUMPDEST SWAP3 POP DUP3 PUSH32 0xFFFFFFFFFFFFFFFFFFFFFFFFFFFFFFFFFFFFFFFFFFFFFFFFFFFFFFFFFFFFFFFF SUB DUP3 GT ISZERO PUSH2 0x656 JUMPI PUSH2 0x655 PUSH2 0x5DC JUMP JUMPDEST JUMPDEST DUP3 DUP3 ADD SWAP1 POP SWAP3 SWAP2 POP POP JUMP JUMPDEST PUSH1 0x0 PUSH2 0x66C DUP3 PUSH2 0x4D2 JUMP JUMPDEST SWAP2 POP PUSH2 0x677 DUP4 PUSH2 0x4D2 JUMP JUMPDEST SWAP3 POP DUP2 PUSH32 0xFFFFFFFFFFFFFFFFFFFFFFFFFFFFFFFFFFFFFFFFFFFFFFFFFFFFFFFFFFFFFFFF DIV DUP4 GT DUP3 ISZERO ISZERO AND ISZERO PUSH2 0x6B0 JUMPI PUSH2 0x6AF PUSH2 0x5DC JUMP JUMPDEST JUMPDEST DUP3 DUP3 MUL SWAP1 POP SWAP3 SWAP2 POP POP JUMP JUMPDEST PUSH32 0x596F75206D75737420706179206174206C656173742032204554482070657220 PUSH1 0x0 DUP3 ADD MSTORE PUSH32 0x646F6E7574000000000000000000000000000000000000000000000000000000 PUSH1 0x20 DUP3 ADD MSTORE POP JUMP JUMPDEST PUSH1 0x0 PUSH2 0x717 PUSH1 0x25 DUP4 PUSH2 0x55F JUMP JUMPDEST SWAP2 POP PUSH2 0x722 DUP3 PUSH2 0x6BB JUMP JUMPDEST PUSH1 0x40 DUP3 ADD SWAP1 POP SWAP2 SWAP1 POP JUMP JUMPDEST PUSH1 0x0 PUSH1 0x20 DUP3 ADD SWAP1 POP DUP2 DUP2 SUB PUSH1 0x0 DUP4 ADD MSTORE PUSH2 0x746 DUP2 PUSH2 0x70A JUMP JUMPDEST SWAP1 POP SWAP2 SWAP1 POP JUMP JUMPDEST PUSH32 0x4E6F7420656E6F75676820646F6E75747320696E2073746F636B20746F20636F PUSH1 0x0 DUP3 ADD MSTORE PUSH32 0x6D706C6574652074686973207075726368617365000000000000000000000000 PUSH1 0x20 DUP3 ADD MSTORE POP JUMP JUMPDEST PUSH1 0x0 PUSH2 0x7A9 PUSH1 0x34 DUP4 PUSH2 0x55F JUMP JUMPDEST SWAP2 POP PUSH2 0x7B4 DUP3 PUSH2 0x74D JUMP JUMPDEST PUSH1 0x40 DUP3 ADD SWAP1 POP SWAP2 SWAP1 POP JUMP JUMPDEST PUSH1 0x0 PUSH1 0x20 DUP3 ADD SWAP1 POP DUP2 DUP2 SUB PUSH1 0x0 DUP4 ADD MSTORE PUSH2 0x7D8 DUP2 PUSH2 0x79C JUMP JUMPDEST SWAP1 POP SWAP2 SWAP1 POP JUMP JUMPDEST PUSH1 0x0 PUSH2 0x7EA DUP3 PUSH2 0x4D2 JUMP JUMPDEST SWAP2 POP PUSH2 0x7F5 DUP4 PUSH2 0x4D2 JUMP JUMPDEST SWAP3 POP DUP3 DUP3 LT ISZERO PUSH2 0x808 JUMPI PUSH2 0x807 PUSH2 0x5DC JUMP JUMPDEST JUMPDEST DUP3 DUP3 SUB SWAP1 POP SWAP3 SWAP2 POP POP JUMP INVALID LOG2 PUSH5 0x6970667358 0x22 SLT KECCAK256 0xDF MULMOD SHL CODECOPY LOG4 0x22 PUSH19 0x2E339CE91FBF15C7591D81DC90530AD1DFFCF0 0xCD EQ 0x4A 0x49 SIGNEXTEND 0xA9 PUSH5 0x736F6C6343 STOP ADDMOD SIGNEXTEND STOP CALLER "
				},
				"gasEstimates": {
					"creation": {
						"codeDepositCost": "424200",
						"executionCost": "46930",
						"totalCost": "471130"
					},
					"external": {
						"donutBalances(address)": "2814",
						"getVendingMachineBalance()": "2570",
						"owner()": "2489",
						"purchase(uint256)": "infinite",
						"restock(uint256)": "infinite"
					}
				},
				"methodIdentifiers": {
					"donutBalances(address)": "9a020d8a",
					"getVendingMachineBalance()": "e7644d34",
					"owner()": "8da5cb5b",
					"purchase(uint256)": "efef39a1",
					"restock(uint256)": "c21a702a"
				}
			},
			"storageLayout": {
				"storage": [
					{
						"astId": 3,
						"contract": "contracts/Vending_machine.sol:VendingMachine",
						"label": "owner",
						"offset": 0,
						"slot": "0",
						"type": "t_address"
					},
					{
						"astId": 7,
						"contract": "contracts/Vending_machine.sol:VendingMachine",
						"label": "donutBalances",
						"offset": 0,
						"slot": "1",
						"type": "t_mapping(t_address,t_uint256)"
					}
				],
				"types": {
					"t_address": {
						"encoding": "inplace",
						"label": "address",
						"numberOfBytes": "20"
					},
					"t_mapping(t_address,t_uint256)": {
						"encoding": "mapping",
						"key": "t_address",
						"label": "mapping(address => uint256)",
						"numberOfBytes": "32",
						"value": "t_uint256"
					},
					"t_uint256": {
						"encoding": "inplace",
						"label": "uint256",
						"numberOfBytes": "32"
					}
				}
			},
			"userdoc": {
				"kind": "user",
				"methods": {},
				"version": 1
			}
		}
	}
}